{
  "_format": "hh-sol-artifact-1",
  "contractName": "CryptITTransactions",
  "sourceName": "contracts/Transactions.sol",
  "abi": [
    {
      "inputs": [],
      "stateMutability": "nonpayable",
      "type": "constructor"
    },
    {
      "anonymous": false,
      "inputs": [
        {
          "indexed": true,
          "internalType": "address",
          "name": "previousOwner",
          "type": "address"
        },
        {
          "indexed": true,
          "internalType": "address",
          "name": "newOwner",
          "type": "address"
        }
      ],
      "name": "OwnershipTransferred",
      "type": "event"
    },
    {
      "anonymous": false,
      "inputs": [
        {
          "indexed": false,
          "internalType": "address",
          "name": "from",
          "type": "address"
        },
        {
          "indexed": false,
          "internalType": "address",
          "name": "receiver",
          "type": "address"
        },
        {
          "indexed": false,
          "internalType": "uint256",
          "name": "amount",
          "type": "uint256"
        },
        {
          "indexed": false,
          "internalType": "string",
          "name": "message",
          "type": "string"
        },
        {
          "indexed": false,
          "internalType": "uint256",
          "name": "timestamp",
          "type": "uint256"
        },
        {
          "indexed": false,
          "internalType": "string",
          "name": "keyword",
          "type": "string"
        }
      ],
      "name": "Transfer",
      "type": "event"
    },
    {
      "inputs": [
        {
          "internalType": "address payable",
          "name": "receiver",
          "type": "address"
        },
        {
          "internalType": "uint256",
          "name": "amount",
          "type": "uint256"
        },
        {
          "internalType": "string",
          "name": "message",
          "type": "string"
        },
        {
          "internalType": "string",
          "name": "keyword",
          "type": "string"
        }
      ],
      "name": "addToBlockchain",
      "outputs": [],
      "stateMutability": "nonpayable",
      "type": "function"
    },
    {
      "inputs": [],
      "name": "getAllTransactions",
      "outputs": [
        {
          "components": [
            {
              "internalType": "address",
              "name": "sender",
              "type": "address"
            },
            {
              "internalType": "address",
              "name": "receiver",
              "type": "address"
            },
            {
              "internalType": "uint256",
              "name": "amount",
              "type": "uint256"
            },
            {
              "internalType": "string",
              "name": "message",
              "type": "string"
            },
            {
              "internalType": "uint256",
              "name": "timestamp",
              "type": "uint256"
            },
            {
              "internalType": "string",
              "name": "keyword",
              "type": "string"
            }
          ],
          "internalType": "struct CryptITTransactions.TransferStruct[]",
          "name": "",
          "type": "tuple[]"
        }
      ],
      "stateMutability": "view",
      "type": "function"
    },
    {
      "inputs": [],
      "name": "getOwner",
      "outputs": [
        {
          "internalType": "address",
          "name": "",
          "type": "address"
        }
      ],
      "stateMutability": "view",
      "type": "function"
    },
    {
      "inputs": [],
      "name": "getTransactionCount",
      "outputs": [
        {
          "internalType": "uint256",
          "name": "",
          "type": "uint256"
        }
      ],
      "stateMutability": "view",
      "type": "function"
    },
    {
      "inputs": [
        {
          "internalType": "address",
          "name": "user",
          "type": "address"
        }
      ],
      "name": "getUserTransactionCount",
      "outputs": [
        {
          "internalType": "uint256",
          "name": "",
          "type": "uint256"
        }
      ],
      "stateMutability": "view",
      "type": "function"
    },
    {
      "inputs": [
        {
          "internalType": "address",
          "name": "newOwner",
          "type": "address"
        }
      ],
      "name": "transferOwnership",
      "outputs": [],
      "stateMutability": "nonpayable",
      "type": "function"
    }
  ],
  "bytecode": "0x60806040523480156200001157600080fd5b5033600160006101000a81548173ffffffffffffffffffffffffffffffffffffffff021916908373ffffffffffffffffffffffffffffffffffffffff160217905550620000836040518060600160405280602381526020016200141860239139336200008960201b620007c11760201c565b62000275565b6200012b8282604051602401620000a2929190620001aa565b6040516020818303038152906040527f319af333000000000000000000000000000000000000000000000000000000007bffffffffffffffffffffffffffffffffffffffffffffffffffffffff19166020820180517bffffffffffffffffffffffffffffffffffffffffffffffffffffffff83818316178352505050506200012f60201b60201c565b5050565b60008151905060006a636f6e736f6c652e6c6f679050602083016000808483855afa5050505050565b6200016381620001fa565b82525050565b60006200017682620001de565b620001828185620001e9565b9350620001948185602086016200022e565b6200019f8162000264565b840191505092915050565b60006040820190508181036000830152620001c6818562000169565b9050620001d7602083018462000158565b9392505050565b600081519050919050565b600082825260208201905092915050565b600062000207826200020e565b9050919050565b600073ffffffffffffffffffffffffffffffffffffffff82169050919050565b60005b838110156200024e57808201518184015260208101905062000231565b838111156200025e576000848401525b50505050565b6000601f19601f8301169050919050565b61119380620002856000396000f3fe608060405234801561001057600080fd5b50600436106100625760003560e01c806327506f53146100675780632e7700f014610085578063893d20e8146100a3578063cc2d7ead146100c1578063d8f33840146100dd578063f2fde38b1461010d575b600080fd5b61006f610129565b60405161007c9190610db8565b60405180910390f35b61008d61036c565b60405161009a9190610e4a565b60405180910390f35b6100ab610375565b6040516100b89190610d2e565b60405180910390f35b6100db60048036038101906100d691906109f9565b61039f565b005b6100f760048036038101906100f291906109d0565b6105b8565b6040516101049190610e4a565b60405180910390f35b610127600480360381019061012291906109d0565b610601565b005b60606003805480602002602001604051908101604052809291908181526020016000905b8282101561036357838290600052602060002090600602016040518060c00160405290816000820160009054906101000a900473ffffffffffffffffffffffffffffffffffffffff1673ffffffffffffffffffffffffffffffffffffffff1673ffffffffffffffffffffffffffffffffffffffff1681526020016001820160009054906101000a900473ffffffffffffffffffffffffffffffffffffffff1673ffffffffffffffffffffffffffffffffffffffff1673ffffffffffffffffffffffffffffffffffffffff1681526020016002820154815260200160038201805461023690611048565b80601f016020809104026020016040519081016040528092919081815260200182805461026290611048565b80156102af5780601f10610284576101008083540402835291602001916102af565b820191906000526020600020905b81548152906001019060200180831161029257829003601f168201915b50505050508152602001600482015481526020016005820180546102d290611048565b80601f01602080910402602001604051908101604052809291908181526020018280546102fe90611048565b801561034b5780601f106103205761010080835404028352916020019161034b565b820191906000526020600020905b81548152906001019060200180831161032e57829003601f168201915b5050505050815250508152602001906001019061014d565b50505050905090565b60008054905090565b6000600160009054906101000a900473ffffffffffffffffffffffffffffffffffffffff16905090565b60016000808282546103b19190610f2c565b925050819055506001600260003373ffffffffffffffffffffffffffffffffffffffff1673ffffffffffffffffffffffffffffffffffffffff16815260200190815260200160002060008282546104089190610f2c565b9250508190555060036040518060c001604052803373ffffffffffffffffffffffffffffffffffffffff1681526020018673ffffffffffffffffffffffffffffffffffffffff16815260200185815260200184815260200142815260200183815250908060018154018082558091505060019003906000526020600020906006020160009091909190915060008201518160000160006101000a81548173ffffffffffffffffffffffffffffffffffffffff021916908373ffffffffffffffffffffffffffffffffffffffff16021790555060208201518160010160006101000a81548173ffffffffffffffffffffffffffffffffffffffff021916908373ffffffffffffffffffffffffffffffffffffffff160217905550604082015181600201556060820151816003019080519060200190610547929190610886565b506080820151816004015560a082015181600501908051906020019061056e929190610886565b5050507f416cfa4330a4565f45c2fd2dd4826a83a37443aba2ce6f79477c7355afac35fa3385858542866040516105aa96959493929190610d49565b60405180910390a150505050565b6000600260008373ffffffffffffffffffffffffffffffffffffffff1673ffffffffffffffffffffffffffffffffffffffff168152602001908152602001600020549050919050565b600160009054906101000a900473ffffffffffffffffffffffffffffffffffffffff1673ffffffffffffffffffffffffffffffffffffffff163373ffffffffffffffffffffffffffffffffffffffff1614610691576040517f08c379a000000000000000000000000000000000000000000000000000000000815260040161068890610e0a565b60405180910390fd5b600073ffffffffffffffffffffffffffffffffffffffff168173ffffffffffffffffffffffffffffffffffffffff161415610701576040517f08c379a00000000000000000000000000000000000000000000000000000000081526004016106f890610e2a565b60405180910390fd5b8073ffffffffffffffffffffffffffffffffffffffff16600160009054906101000a900473ffffffffffffffffffffffffffffffffffffffff1673ffffffffffffffffffffffffffffffffffffffff167f8be0079c531659141344cd1fd0a4f28419497f9722a3daafe3b4186f6b6457e060405160405180910390a380600160006101000a81548173ffffffffffffffffffffffffffffffffffffffff021916908373ffffffffffffffffffffffffffffffffffffffff16021790555050565b61085982826040516024016107d7929190610dda565b6040516020818303038152906040527f319af333000000000000000000000000000000000000000000000000000000007bffffffffffffffffffffffffffffffffffffffffffffffffffffffff19166020820180517bffffffffffffffffffffffffffffffffffffffffffffffffffffffff838183161783525050505061085d565b5050565b60008151905060006a636f6e736f6c652e6c6f679050602083016000808483855afa5050505050565b82805461089290611048565b90600052602060002090601f0160209004810192826108b457600085556108fb565b82601f106108cd57805160ff19168380011785556108fb565b828001600101855582156108fb579182015b828111156108fa5782518255916020019190600101906108df565b5b509050610908919061090c565b5090565b5b8082111561092557600081600090555060010161090d565b5090565b600061093c61093784610e96565b610e65565b90508281526020810184848401111561095457600080fd5b61095f848285611006565b509392505050565b60008135905061097681611118565b92915050565b60008135905061098b8161112f565b92915050565b600082601f8301126109a257600080fd5b81356109b2848260208601610929565b91505092915050565b6000813590506109ca81611146565b92915050565b6000602082840312156109e257600080fd5b60006109f084828501610967565b91505092915050565b60008060008060808587031215610a0f57600080fd5b6000610a1d8782880161097c565b9450506020610a2e878288016109bb565b935050604085013567ffffffffffffffff811115610a4b57600080fd5b610a5787828801610991565b925050606085013567ffffffffffffffff811115610a7457600080fd5b610a8087828801610991565b91505092959194509250565b6000610a988383610c80565b905092915050565b610aa981610fd0565b82525050565b610ab881610f82565b82525050565b610ac781610f82565b82525050565b6000610ad882610ed6565b610ae28185610ef9565b935083602082028501610af485610ec6565b8060005b85811015610b305784840389528151610b118582610a8c565b9450610b1c83610eec565b925060208a01995050600181019050610af8565b50829750879550505050505092915050565b6000610b4d82610ee1565b610b578185610f0a565b9350610b67818560208601611015565b610b7081611107565b840191505092915050565b6000610b8682610ee1565b610b908185610f1b565b9350610ba0818560208601611015565b610ba981611107565b840191505092915050565b6000610bc1602e83610f1b565b91507f4f6e6c792074686520636f6e7472616374206f776e65722063616e2063616c6c60008301527f20746869732066756e6374696f6e0000000000000000000000000000000000006020830152604082019050919050565b6000610c27602483610f1b565b91507f4e6577206f776e65722063616e6e6f7420626520746865207a65726f2061646460008301527f72657373000000000000000000000000000000000000000000000000000000006020830152604082019050919050565b600060c083016000830151610c986000860182610aaf565b506020830151610cab6020860182610aaf565b506040830151610cbe6040860182610d10565b5060608301518482036060860152610cd68282610b42565b9150506080830151610ceb6080860182610d10565b5060a083015184820360a0860152610d038282610b42565b9150508091505092915050565b610d1981610fc6565b82525050565b610d2881610fc6565b82525050565b6000602082019050610d436000830184610abe565b92915050565b600060c082019050610d5e6000830189610abe565b610d6b6020830188610aa0565b610d786040830187610d1f565b8181036060830152610d8a8186610b7b565b9050610d996080830185610d1f565b81810360a0830152610dab8184610b7b565b9050979650505050505050565b60006020820190508181036000830152610dd28184610acd565b905092915050565b60006040820190508181036000830152610df48185610b7b565b9050610e036020830184610abe565b9392505050565b60006020820190508181036000830152610e2381610bb4565b9050919050565b60006020820190508181036000830152610e4381610c1a565b9050919050565b6000602082019050610e5f6000830184610d1f565b92915050565b6000604051905081810181811067ffffffffffffffff82111715610e8c57610e8b6110d8565b5b8060405250919050565b600067ffffffffffffffff821115610eb157610eb06110d8565b5b601f19601f8301169050602081019050919050565b6000819050602082019050919050565b600081519050919050565b600081519050919050565b6000602082019050919050565b600082825260208201905092915050565b600082825260208201905092915050565b600082825260208201905092915050565b6000610f3782610fc6565b9150610f4283610fc6565b9250827fffffffffffffffffffffffffffffffffffffffffffffffffffffffffffffffff03821115610f7757610f7661107a565b5b828201905092915050565b6000610f8d82610fa6565b9050919050565b6000610f9f82610fa6565b9050919050565b600073ffffffffffffffffffffffffffffffffffffffff82169050919050565b6000819050919050565b6000610fdb82610fe2565b9050919050565b6000610fed82610ff4565b9050919050565b6000610fff82610fa6565b9050919050565b82818337600083830152505050565b60005b83811015611033578082015181840152602081019050611018565b83811115611042576000848401525b50505050565b6000600282049050600182168061106057607f821691505b60208210811415611074576110736110a9565b5b50919050565b7f4e487b7100000000000000000000000000000000000000000000000000000000600052601160045260246000fd5b7f4e487b7100000000000000000000000000000000000000000000000000000000600052602260045260246000fd5b7f4e487b7100000000000000000000000000000000000000000000000000000000600052604160045260246000fd5b6000601f19601f8301169050919050565b61112181610f82565b811461112c57600080fd5b50565b61113881610f94565b811461114357600080fd5b50565b61114f81610fc6565b811461115a57600080fd5b5056fea264697066735822122092fcc91aec4ad791faec866799ad31aedce47da8d07a4a47498b4b20a20869b364736f6c634300080000334372797074495420536d61727420436f6e7472616374206465706c6f7965642062793a",
  "linkReferences": {},
  "deployedLinkReferences": {}
}